:020000040000FA
:100000002500430BE20100081F089B086908A508AA
:1000100080089008B208D7084408EC0875083B0827
:1000200062080C08A308A608E4081F084C08050885
:10003000E40844086E08D9085B083408E608080894
:10004000310891087208E2010008AE08F3087B0845
:100050001208C9088308F008A908570850080808BA
:100060000408810802082108960809080F0890086A
:10007000C3086208270821083B0822084E088808A0
:10008000F508C50875089108E2010008E308A20810
:1000900045084008E0080908EA08420865081C0805
:1000A000C108EB08B008690814080108D2088E08D6
:1000B000FB08FA088608090895081B086108140857
:1000C0000E0899082108EC084008E20100082508FC
:1000D0006D084F08C508CA08040839083A087D08A1
:1000E0000D08F10843080508710866088208310800
:1000F0002108D808FE084D08C208C808CC0809081D
:10010000A00806084908D508F10883082900080C4A
:100110002700A6058604E9068605690326078E0AD8
:10012000A6042606910AE702890A00080F020209BE
:10013000900186090F022309910186090F024409E3
:10014000920186090F026509930186096A0B0F0265
:100150000209B003900186090F024409B10391011D
:1001600086090F026509B203920186090F0223096D
:10017000B303930186096A0B0F020209D0018609B5
:100180000F022309D10186090F024409D201860911
:100190000F026509D30186096A0B0F0265099000F9
:1001A00086090F024409910086090F022309920073
:1001B00086090F020209930086096A0B0F020209E1
:1001C00027009001C70186090F02650927009101E8
:1001D000C70186090F02230927009201C70186097A
:1001E0000F02440927009301C70186096A0B0F0219
:1001F000020927000F0223099000870186090F02D8
:10020000230927000F0244099100870186090F0284
:10021000440927000F0265099200870186090F0231
:10022000650927000F0202099300870186096A0BFE
:100230000F020209D0018609AF02AF040F022309A1
:1002400091008609AF02AF040F024409D20186096A
:10025000AF02AF040F026509930086096A0B0F070E
:10026000A70A5002860951028609520286095302E2
:1002700086096A0B4000860940008609010C860940
:10028000010C86096A0BFF0C0600000C2600C80C46
:100290000200100C270068006900E9024D0BE8021B
:1002A0004D0BE7024D0B6900080C27006903090498
:1002B0002607580B26065A0B060609050902AE0F3B
:1002C0004307560BE702560B0602100F100E2600CE
:1002D000CB0C06000E0C2400080C2800080C27008C
:1002E000690309042607720BA6052606750B060688
:1002F0000905A604E702700B090209022000A40206
:10030000E8026E0BFF0C2A00FF0C2B000E0C2400E1
:10031000030C270000022C00A40200022D00A402FE
:10032000100C28000A02290003046B036A03EC0680
:100330000B056D036C03E907A10B800CAA01050CEA
:10034000AB01E802920BE7028A0B000CAA01000C39
:10035000AB010A02A001A4020B02A001E40000020A
:10036000A40200014307E10B2F024306DD0BAF0699
:10037000DD0B0E02000F4306DD0B0E02010F4306DC
:10038000A70A0E02020F4306BC0A0E02030F430621
:10039000CD0A0E02040F4306DE0A0E02050F4306C5
:1003A000F70A0E02060F4306180B0E02070F43064C
:1003B0002F0B0E02FF0F43063A0B01021F0E2F00F8
:1003C0002F0B4605E20BFF0FFF0FFF0FFF0FFF0F75
:1003D000FF0FFF0FFF0FFF0FFF0FFF0FFF0FFF0FAD
:1003E000FF0FFF0FFF0FFF0FFF0FFF0FFF0FFF0F9D
:0E03F000FF0FFF0FFF0FFF0FFF0FFF0FFF0F9D
:021FFE00F20FE0
:08040000020003000D000400DE
:0203FE00900C61
:00000001FF
